{
  "_format": "hh-sol-artifact-1",
  "contractName": "Voting",
  "sourceName": "contracts/Voting.sol",
  "abi": [
    {
      "inputs": [
        {
          "internalType": "string[]",
          "name": "_candidateNames",
          "type": "string[]"
        }
      ],
      "stateMutability": "nonpayable",
      "type": "constructor"
    },
    {
      "anonymous": false,
      "inputs": [
        {
          "indexed": false,
          "internalType": "uint256",
          "name": "candidateId",
          "type": "uint256"
        },
        {
          "indexed": false,
          "internalType": "address",
          "name": "voter",
          "type": "address"
        }
      ],
      "name": "Voted",
      "type": "event"
    },
    {
      "inputs": [
        {
          "internalType": "uint256",
          "name": "",
          "type": "uint256"
        }
      ],
      "name": "candidates",
      "outputs": [
        {
          "internalType": "string",
          "name": "name",
          "type": "string"
        },
        {
          "internalType": "uint256",
          "name": "voteCount",
          "type": "uint256"
        }
      ],
      "stateMutability": "view",
      "type": "function"
    },
    {
      "inputs": [],
      "name": "getAllCandidates",
      "outputs": [
        {
          "components": [
            {
              "internalType": "string",
              "name": "name",
              "type": "string"
            },
            {
              "internalType": "uint256",
              "name": "voteCount",
              "type": "uint256"
            }
          ],
          "internalType": "struct Voting.Candidate[]",
          "name": "",
          "type": "tuple[]"
        }
      ],
      "stateMutability": "view",
      "type": "function"
    },
    {
      "inputs": [
        {
          "internalType": "uint256",
          "name": "_candidateId",
          "type": "uint256"
        }
      ],
      "name": "vote",
      "outputs": [],
      "stateMutability": "nonpayable",
      "type": "function"
    },
    {
      "inputs": [
        {
          "internalType": "address",
          "name": "",
          "type": "address"
        }
      ],
      "name": "voters",
      "outputs": [
        {
          "internalType": "bool",
          "name": "",
          "type": "bool"
        }
      ],
      "stateMutability": "view",
      "type": "function"
    }
  ],
  "bytecode": "0x60806040523480156200001157600080fd5b50604051620010573803806200105783398181016040528101906200003791906200036b565b60005b8151811015620000d45760006040518060400160405280848481518110620000675762000066620003bc565b5b60200260200101518152602001600081525090806001815401808255809150506001900390600052602060002090600202016000909190919091506000820151816000019081620000b9919062000636565b5060208201518160010155505080806001019150506200003a565b50506200071d565b6000604051905090565b600080fd5b600080fd5b600080fd5b6000601f19601f8301169050919050565b7f4e487b7100000000000000000000000000000000000000000000000000000000600052604160045260246000fd5b6200014082620000f5565b810181811067ffffffffffffffff8211171562000162576200016162000106565b5b80604052505050565b600062000177620000dc565b905062000185828262000135565b919050565b600067ffffffffffffffff821115620001a857620001a762000106565b5b602082029050602081019050919050565b600080fd5b600080fd5b600067ffffffffffffffff821115620001e157620001e062000106565b5b620001ec82620000f5565b9050602081019050919050565b60005b8381101562000219578082015181840152602081019050620001fc565b60008484015250505050565b60006200023c6200023684620001c3565b6200016b565b9050828152602081018484840111156200025b576200025a620001be565b5b62000268848285620001f9565b509392505050565b600082601f830112620002885762000287620000f0565b5b81516200029a84826020860162000225565b91505092915050565b6000620002ba620002b4846200018a565b6200016b565b90508083825260208201905060208402830185811115620002e057620002df620001b9565b5b835b818110156200032e57805167ffffffffffffffff811115620003095762000308620000f0565b5b80860162000318898262000270565b85526020850194505050602081019050620002e2565b5050509392505050565b600082601f83011262000350576200034f620000f0565b5b815162000362848260208601620002a3565b91505092915050565b600060208284031215620003845762000383620000e6565b5b600082015167ffffffffffffffff811115620003a557620003a4620000eb565b5b620003b38482850162000338565b91505092915050565b7f4e487b7100000000000000000000000000000000000000000000000000000000600052603260045260246000fd5b600081519050919050565b7f4e487b7100000000000000000000000000000000000000000000000000000000600052602260045260246000fd5b600060028204905060018216806200043e57607f821691505b602082108103620004545762000453620003f6565b5b50919050565b60008190508160005260206000209050919050565b60006020601f8301049050919050565b600082821b905092915050565b600060088302620004be7fffffffffffffffffffffffffffffffffffffffffffffffffffffffffffffffff826200047f565b620004ca86836200047f565b95508019841693508086168417925050509392505050565b6000819050919050565b6000819050919050565b600062000517620005116200050b84620004e2565b620004ec565b620004e2565b9050919050565b6000819050919050565b6200053383620004f6565b6200054b62000542826200051e565b8484546200048c565b825550505050565b600090565b6200056262000553565b6200056f81848462000528565b505050565b5b8181101562000597576200058b60008262000558565b60018101905062000575565b5050565b601f821115620005e657620005b0816200045a565b620005bb846200046f565b81016020851015620005cb578190505b620005e3620005da856200046f565b83018262000574565b50505b505050565b600082821c905092915050565b60006200060b60001984600802620005eb565b1980831691505092915050565b6000620006268383620005f8565b9150826002028217905092915050565b6200064182620003eb565b67ffffffffffffffff8111156200065d576200065c62000106565b5b62000669825462000425565b620006768282856200059b565b600060209050601f831160018114620006ae576000841562000699578287015190505b620006a5858262000618565b86555062000715565b601f198416620006be866200045a565b60005b82811015620006e857848901518255600182019150602085019450602081019050620006c1565b8683101562000708578489015162000704601f891682620005f8565b8355505b6001600288020188555050505b505050505050565b61092a806200072d6000396000f3fe608060405234801561001057600080fd5b506004361061004c5760003560e01c80630121b93f146100515780632e6997fe1461006d5780633477ee2e1461008b578063a3ec138d146100bc575b600080fd5b61006b60048036038101906100669190610413565b6100ec565b005b610075610201565b60405161008291906105de565b60405180910390f35b6100a560048036038101906100a09190610413565b6102fc565b6040516100b3929190610659565b60405180910390f35b6100d660048036038101906100d191906106e7565b6103b8565b6040516100e3919061072f565b60405180910390f35b6000805490508110610133576040517f08c379a000000000000000000000000000000000000000000000000000000000815260040161012a90610796565b60405180910390fd5b60008181548110610147576101466107b6565b5b9060005260206000209060020201600101600081548092919061016990610814565b919050555060018060003373ffffffffffffffffffffffffffffffffffffffff1673ffffffffffffffffffffffffffffffffffffffff16815260200190815260200160002060006101000a81548160ff0219169083151502179055507f030b0f8dcd86a031eddb071f91882edeac8173663ba775713b677b42b51be44b81336040516101f692919061086b565b60405180910390a150565b60606000805480602002602001604051908101604052809291908181526020016000905b828210156102f35783829060005260206000209060020201604051806040016040529081600082018054610258906108c3565b80601f0160208091040260200160405190810160405280929190818152602001828054610284906108c3565b80156102d15780601f106102a6576101008083540402835291602001916102d1565b820191906000526020600020905b8154815290600101906020018083116102b457829003601f168201915b5050505050815260200160018201548152505081526020019060010190610225565b50505050905090565b6000818154811061030c57600080fd5b906000526020600020906002020160009150905080600001805461032f906108c3565b80601f016020809104026020016040519081016040528092919081815260200182805461035b906108c3565b80156103a85780601f1061037d576101008083540402835291602001916103a8565b820191906000526020600020905b81548152906001019060200180831161038b57829003601f168201915b5050505050908060010154905082565b60016020528060005260406000206000915054906101000a900460ff1681565b600080fd5b6000819050919050565b6103f0816103dd565b81146103fb57600080fd5b50565b60008135905061040d816103e7565b92915050565b600060208284031215610429576104286103d8565b5b6000610437848285016103fe565b91505092915050565b600081519050919050565b600082825260208201905092915050565b6000819050602082019050919050565b600081519050919050565b600082825260208201905092915050565b60005b838110156104a657808201518184015260208101905061048b565b60008484015250505050565b6000601f19601f8301169050919050565b60006104ce8261046c565b6104d88185610477565b93506104e8818560208601610488565b6104f1816104b2565b840191505092915050565b610505816103dd565b82525050565b6000604083016000830151848203600086015261052882826104c3565b915050602083015161053d60208601826104fc565b508091505092915050565b6000610554838361050b565b905092915050565b6000602082019050919050565b600061057482610440565b61057e818561044b565b9350836020820285016105908561045c565b8060005b858110156105cc57848403895281516105ad8582610548565b94506105b88361055c565b925060208a01995050600181019050610594565b50829750879550505050505092915050565b600060208201905081810360008301526105f88184610569565b905092915050565b600082825260208201905092915050565b600061061c8261046c565b6106268185610600565b9350610636818560208601610488565b61063f816104b2565b840191505092915050565b610653816103dd565b82525050565b600060408201905081810360008301526106738185610611565b9050610682602083018461064a565b9392505050565b600073ffffffffffffffffffffffffffffffffffffffff82169050919050565b60006106b482610689565b9050919050565b6106c4816106a9565b81146106cf57600080fd5b50565b6000813590506106e1816106bb565b92915050565b6000602082840312156106fd576106fc6103d8565b5b600061070b848285016106d2565b91505092915050565b60008115159050919050565b61072981610714565b82525050565b60006020820190506107446000830184610720565b92915050565b7f496e76616c69642063616e6469646174652049442e0000000000000000000000600082015250565b6000610780601583610600565b915061078b8261074a565b602082019050919050565b600060208201905081810360008301526107af81610773565b9050919050565b7f4e487b7100000000000000000000000000000000000000000000000000000000600052603260045260246000fd5b7f4e487b7100000000000000000000000000000000000000000000000000000000600052601160045260246000fd5b600061081f826103dd565b91507fffffffffffffffffffffffffffffffffffffffffffffffffffffffffffffffff8203610851576108506107e5565b5b600182019050919050565b610865816106a9565b82525050565b6000604082019050610880600083018561064a565b61088d602083018461085c565b9392505050565b7f4e487b7100000000000000000000000000000000000000000000000000000000600052602260045260246000fd5b600060028204905060018216806108db57607f821691505b6020821081036108ee576108ed610894565b5b5091905056fea264697066735822122093d651e2a6d8a8408b2b39c138c65de53ecd2bfcca57776777da941a123324ca64736f6c63430008180033",
  "linkReferences": {},
  "deployedLinkReferences": {}
}